{
  "contractName": "multiSender",
  "abi": [
    {
      "inputs": [],
      "stateMutability": "payable",
      "type": "constructor",
      "payable": true
    },
    {
      "anonymous": false,
      "inputs": [
        {
          "indexed": true,
          "internalType": "address",
          "name": "previousOwner",
          "type": "address"
        },
        {
          "indexed": true,
          "internalType": "address",
          "name": "newOwner",
          "type": "address"
        }
      ],
      "name": "OwnershipTransferred",
      "type": "event"
    },
    {
      "stateMutability": "payable",
      "type": "fallback",
      "payable": true
    },
    {
      "inputs": [],
      "name": "name",
      "outputs": [
        {
          "internalType": "string",
          "name": "",
          "type": "string"
        }
      ],
      "stateMutability": "view",
      "type": "function",
      "constant": true
    },
    {
      "inputs": [],
      "name": "owner",
      "outputs": [
        {
          "internalType": "address",
          "name": "",
          "type": "address"
        }
      ],
      "stateMutability": "view",
      "type": "function",
      "constant": true
    },
    {
      "inputs": [],
      "name": "renounceOwnership",
      "outputs": [],
      "stateMutability": "nonpayable",
      "type": "function"
    },
    {
      "inputs": [
        {
          "internalType": "address",
          "name": "newOwner",
          "type": "address"
        }
      ],
      "name": "transferOwnership",
      "outputs": [],
      "stateMutability": "nonpayable",
      "type": "function"
    },
    {
      "inputs": [
        {
          "internalType": "address payable[]",
          "name": "_employeesAddr",
          "type": "address[]"
        },
        {
          "internalType": "uint256[]",
          "name": "_amount",
          "type": "uint256[]"
        }
      ],
      "name": "payOut",
      "outputs": [
        {
          "internalType": "bool",
          "name": "success",
          "type": "bool"
        }
      ],
      "stateMutability": "payable",
      "type": "function",
      "payable": true
    },
    {
      "inputs": [],
      "name": "getContractEthBalance",
      "outputs": [
        {
          "internalType": "uint256",
          "name": "",
          "type": "uint256"
        }
      ],
      "stateMutability": "view",
      "type": "function",
      "constant": true
    }
  ],
  "bytecode": "0x608060405262000024620000186200007860201b60201c565b6200008060201b60201c565b6040518060400160405280600c81526020017f506179456d706c6f796565730000000000000000000000000000000000000000815250600190805190602001906200007192919062000144565b5062000259565b600033905090565b60008060009054906101000a900473ffffffffffffffffffffffffffffffffffffffff169050816000806101000a81548173ffffffffffffffffffffffffffffffffffffffff021916908373ffffffffffffffffffffffffffffffffffffffff1602179055508173ffffffffffffffffffffffffffffffffffffffff168173ffffffffffffffffffffffffffffffffffffffff167f8be0079c531659141344cd1fd0a4f28419497f9722a3daafe3b4186f6b6457e060405160405180910390a35050565b828054620001529062000223565b90600052602060002090601f016020900481019282620001765760008555620001c2565b82601f106200019157805160ff1916838001178555620001c2565b82800160010185558215620001c2579182015b82811115620001c1578251825591602001919060010190620001a4565b5b509050620001d19190620001d5565b5090565b5b80821115620001f0576000816000905550600101620001d6565b5090565b7f4e487b7100000000000000000000000000000000000000000000000000000000600052602260045260246000fd5b600060028204905060018216806200023c57607f821691505b60208210811415620002535762000252620001f4565b5b50919050565b610d7680620002696000396000f3fe6080604052600436106100595760003560e01c806306fdde031461005c5780634de57d7514610087578063715018a6146100b25780638da5cb5b146100c957806398e500b4146100f4578063f2fde38b146101245761005a565b5b005b34801561006857600080fd5b5061007161014d565b60405161007e91906106a2565b60405180910390f35b34801561009357600080fd5b5061009c6101db565b6040516100a991906106dd565b60405180910390f35b3480156100be57600080fd5b506100c76101e3565b005b3480156100d557600080fd5b506100de61026b565b6040516100eb9190610739565b60405180910390f35b61010e600480360381019061010991906109dd565b610294565b60405161011b9190610a70565b60405180910390f35b34801561013057600080fd5b5061014b60048036038101906101469190610ab7565b6103a2565b005b6001805461015a90610b13565b80601f016020809104026020016040519081016040528092919081815260200182805461018690610b13565b80156101d35780601f106101a8576101008083540402835291602001916101d3565b820191906000526020600020905b8154815290600101906020018083116101b657829003601f168201915b505050505081565b600047905090565b6101eb61049a565b73ffffffffffffffffffffffffffffffffffffffff1661020961026b565b73ffffffffffffffffffffffffffffffffffffffff161461025f576040517f08c379a000000000000000000000000000000000000000000000000000000000815260040161025690610b91565b60405180910390fd5b61026960006104a2565b565b60008060009054906101000a900473ffffffffffffffffffffffffffffffffffffffff16905090565b600061029e61049a565b73ffffffffffffffffffffffffffffffffffffffff166102bc61026b565b73ffffffffffffffffffffffffffffffffffffffff1614610312576040517f08c379a000000000000000000000000000000000000000000000000000000000815260040161030990610b91565b60405180910390fd5b815183511461032057600080fd5b600061032b83610566565b905080471161033957600080fd5b60005b84518110156103965761038385828151811061035b5761035a610bb1565b5b602002602001015185838151811061037657610375610bb1565b5b60200260200101516105be565b808061038e90610c0f565b91505061033c565b50600191505092915050565b6103aa61049a565b73ffffffffffffffffffffffffffffffffffffffff166103c861026b565b73ffffffffffffffffffffffffffffffffffffffff161461041e576040517f08c379a000000000000000000000000000000000000000000000000000000000815260040161041590610b91565b60405180910390fd5b600073ffffffffffffffffffffffffffffffffffffffff168173ffffffffffffffffffffffffffffffffffffffff16141561048e576040517f08c379a000000000000000000000000000000000000000000000000000000000815260040161048590610cca565b60405180910390fd5b610497816104a2565b50565b600033905090565b60008060009054906101000a900473ffffffffffffffffffffffffffffffffffffffff169050816000806101000a81548173ffffffffffffffffffffffffffffffffffffffff021916908373ffffffffffffffffffffffffffffffffffffffff1602179055508173ffffffffffffffffffffffffffffffffffffffff168173ffffffffffffffffffffffffffffffffffffffff167f8be0079c531659141344cd1fd0a4f28419497f9722a3daafe3b4186f6b6457e060405160405180910390a35050565b6000806000905060005b83518110156105b45783818151811061058c5761058b610bb1565b5b60200260200101518261059f9190610cea565b915080806105ac90610c0f565b915050610570565b5080915050919050565b8173ffffffffffffffffffffffffffffffffffffffff166108fc829081150290604051600060405180830381858888f19350505050158015610604573d6000803e3d6000fd5b505050565b600081519050919050565b600082825260208201905092915050565b60005b83811015610643578082015181840152602081019050610628565b83811115610652576000848401525b50505050565b6000601f19601f8301169050919050565b600061067482610609565b61067e8185610614565b935061068e818560208601610625565b61069781610658565b840191505092915050565b600060208201905081810360008301526106bc8184610669565b905092915050565b6000819050919050565b6106d7816106c4565b82525050565b60006020820190506106f260008301846106ce565b92915050565b600073ffffffffffffffffffffffffffffffffffffffff82169050919050565b6000610723826106f8565b9050919050565b61073381610718565b82525050565b600060208201905061074e600083018461072a565b92915050565b6000604051905090565b600080fd5b600080fd5b600080fd5b7f4e487b7100000000000000000000000000000000000000000000000000000000600052604160045260246000fd5b6107a582610658565b810181811067ffffffffffffffff821117156107c4576107c361076d565b5b80604052505050565b60006107d7610754565b90506107e3828261079c565b919050565b600067ffffffffffffffff8211156108035761080261076d565b5b602082029050602081019050919050565b600080fd5b6000610824826106f8565b9050919050565b61083481610819565b811461083f57600080fd5b50565b6000813590506108518161082b565b92915050565b600061086a610865846107e8565b6107cd565b9050808382526020820190506020840283018581111561088d5761088c610814565b5b835b818110156108b657806108a28882610842565b84526020840193505060208101905061088f565b5050509392505050565b600082601f8301126108d5576108d4610768565b5b81356108e5848260208601610857565b91505092915050565b600067ffffffffffffffff8211156109095761090861076d565b5b602082029050602081019050919050565b610923816106c4565b811461092e57600080fd5b50565b6000813590506109408161091a565b92915050565b6000610959610954846108ee565b6107cd565b9050808382526020820190506020840283018581111561097c5761097b610814565b5b835b818110156109a557806109918882610931565b84526020840193505060208101905061097e565b5050509392505050565b600082601f8301126109c4576109c3610768565b5b81356109d4848260208601610946565b91505092915050565b600080604083850312156109f4576109f361075e565b5b600083013567ffffffffffffffff811115610a1257610a11610763565b5b610a1e858286016108c0565b925050602083013567ffffffffffffffff811115610a3f57610a3e610763565b5b610a4b858286016109af565b9150509250929050565b60008115159050919050565b610a6a81610a55565b82525050565b6000602082019050610a856000830184610a61565b92915050565b610a9481610718565b8114610a9f57600080fd5b50565b600081359050610ab181610a8b565b92915050565b600060208284031215610acd57610acc61075e565b5b6000610adb84828501610aa2565b91505092915050565b7f4e487b7100000000000000000000000000000000000000000000000000000000600052602260045260246000fd5b60006002820490506001821680610b2b57607f821691505b60208210811415610b3f57610b3e610ae4565b5b50919050565b7f4f776e61626c653a2063616c6c6572206973206e6f7420746865206f776e6572600082015250565b6000610b7b602083610614565b9150610b8682610b45565b602082019050919050565b60006020820190508181036000830152610baa81610b6e565b9050919050565b7f4e487b7100000000000000000000000000000000000000000000000000000000600052603260045260246000fd5b7f4e487b7100000000000000000000000000000000000000000000000000000000600052601160045260246000fd5b6000610c1a826106c4565b91507fffffffffffffffffffffffffffffffffffffffffffffffffffffffffffffffff821415610c4d57610c4c610be0565b5b600182019050919050565b7f4f776e61626c653a206e6577206f776e657220697320746865207a65726f206160008201527f6464726573730000000000000000000000000000000000000000000000000000602082015250565b6000610cb4602683610614565b9150610cbf82610c58565b604082019050919050565b60006020820190508181036000830152610ce381610ca7565b9050919050565b6000610cf5826106c4565b9150610d00836106c4565b9250827fffffffffffffffffffffffffffffffffffffffffffffffffffffffffffffffff03821115610d3557610d34610be0565b5b82820190509291505056fea26469706673582212200c470e1945f9329b3dd55a80d79377cbe4a2c99dfd18e145b106fe0b4c5eb08364736f6c634300080b0033",
  "immutableReferences": {},
  "source": "// SPDX-License-Identifier: MIT\r\npragma solidity ^0.8.0;\r\n\r\nimport \"@openzeppelin/contracts/access/Ownable.sol\";\r\n\r\ncontract multiSender is Ownable{\r\n    // name of the contract\r\n    string public name;\r\n\r\n    constructor() payable {\r\n        name = 'PayEmployees';\r\n    }\r\n\r\n    fallback() external payable{}\r\n\r\n    // Count\r\n    function calc(uint [] memory _receiver) pure private returns(uint){\r\n        uint totalAmount = 0;\r\n        for(uint i = 0; i<_receiver.length; i++){\r\n            totalAmount += _receiver[i];\r\n        }\r\n\r\n        return totalAmount; \r\n    }\r\n\r\n    // Withdrawal\r\n    function withdraw(address payable receiver, uint amount) private{\r\n        receiver.transfer(amount);\r\n    }\r\n\r\n    // A transfer function to\r\n    function payOut(address payable [] memory _employeesAddr, uint[] memory _amount) onlyOwner public payable returns(bool success){\r\n        // The length of the address array should be the same to that of the amount to be inputed by the caller\r\n       require(_employeesAddr.length == _amount.length);\r\n\r\n        //Using the calc function to check the total amount of eth we are sending out \r\n        uint toBeSent = calc(_amount);\r\n        \r\n        // The balance of the ether in the contract should be greater than the total amount to be sent\r\n      require(address(this).balance > toBeSent);\r\n        for(uint i=0; i<_employeesAddr.length; i++){\r\n\r\n            // Calling the withdraw function\r\n            withdraw(_employeesAddr[i], _amount[i]);\r\n        }\r\n\r\n        return true;\r\n    }\r\n\r\n    // Get the eth balance of the contract\r\n    function getContractEthBalance() public view returns(uint){\r\n        return address(this).balance;\r\n    }\r\n}",
  "sourcePath": "C:\\Users\\aadem\\OneDrive\\Desktop\\Solidity-DApp\\multiSender\\contracts\\multiSender.sol",
  "compiler": {
    "name": "solc",
    "version": "0.8.11+commit.d7f03943.Emscripten.clang"
  },
  "schemaVersion": "3.4.4",
  "updatedAt": "2022-04-03T22:21:32.072Z",
  "networkType": "ethereum",
  "devdoc": {
    "kind": "dev",
    "methods": {
      "owner()": {
        "details": "Returns the address of the current owner."
      },
      "renounceOwnership()": {
        "details": "Leaves the contract without owner. It will not be possible to call `onlyOwner` functions anymore. Can only be called by the current owner. NOTE: Renouncing ownership will leave the contract without an owner, thereby removing any functionality that is only available to the owner."
      },
      "transferOwnership(address)": {
        "details": "Transfers ownership of the contract to a new account (`newOwner`). Can only be called by the current owner."
      }
    },
    "version": 1
  },
  "userdoc": {
    "kind": "user",
    "methods": {},
    "version": 1
  }
}